:100000000C9472000C9493000C9493000C94930045
:100010000C9493000C9493000C9493000C94930014
:100020000C9493000C9493000C9493000C94930004
:100030000C9493000C9493000C9493000C949300F4
:100040000C9493000C9424020C9493000C94930051
:100050000C9493000C949F020C94C6020C944F02D3
:100060000C9493000C9493000C9493000C949300C4
:100070000C9493000C9493000C9493000C949300B4
:100080000C9493000C9493000C9493000C949300A4
:100090000C9493000C9493000C9493000C94930094
:1000A0000C9493000C9493000C9493000C94930084
:1000B0000C9493000C9493000C9493000C94930074
:1000C0000C9493000C9493000C9493000C94930064
:1000D0000C9493000C9493000C9493000C94930054
:1000E0000C94930011241FBECFEFD1E2DEBFCDBF31
:1000F00000E00CBF13E0A0E0B2E0E4E5FCE000E0CB
:100100000BBF02C007900D92A030B107D9F713E0E2
:10011000A0E0B3E001C01D92A230B107E1F70E9458
:1001200095000C9428060C940000DF93CF93CDB774
:10013000DEB70E94A6000E94ED020E94E5000E9428
:1001400043010E94E5000E94AE01F7CFDF93CF93F9
:10015000CDB7DEB7ADE2B0E0EDE2F0E080818860DF
:100160008C93ADE2B0E0EDE2F0E0808180618C93B1
:10017000A1E0B1E0E1E0F1E0808180618C93ADE24B
:10018000B0E0EDE2F0E0808182608C93ADE2B0E01F
:10019000EDE2F0E0808181608C93A1E2B0E0E1E2E9
:1001A000F0E080818E7F8C93A1E2B0E0E1E2F0E0AC
:1001B00080818D7F8C93A0E3B0E0E0E3F0E080816C
:1001C00081608C93CF91DF910895DF93CF930F924D
:1001D0000F92CDB7DEB7E4E8F0E011821082109202
:1001E00001031092000345C0E0E2F0E08081882F17
:1001F00090E081709070009779F4E0E2F0E0808107
:10020000882F90E082709070009731F48AEA90E035
:100210006AEA70E00E942503E0E2F0E08081882F26
:1002200090E081709070882331F080E090E06AEA7D
:1002300070E00E942503E0E2F0E08081882F90E0EA
:1002400082709070009731F08AEA90E060E070E090
:100250000E9425038091000390910103843B910546
:1002600044F081E090E09A838983E1E3F0E081E06B
:10027000808389819A81009709F0B6CF0F900F9003
:10028000CF91DF910895DF93CF930F920F92CDB767
:10029000DEB7E4E8F0E011821082109201031092C0
:1002A000000345C083E290E06AEA70E00E94250303
:1002B000E0E2F0E08081882F90E0817090708823E8
:1002C000D1F08091000390910103AA2797FDA0959A
:1002D000BA2FBC01CD010E949E03DC01CB01BC0101
:1002E000CD012DEC3CEC44E351E40E946E03181662
:1002F00014F00E9419028091000390910103AA2733
:1003000097FDA095BA2FBC01CD010E949E03DC0190
:10031000CB01BC01CD012DEC3CEC44E351E40E9447
:100320003E03882324F081E090E09A838983E0E211
:10033000F0E08081882F90E081709070982F81E0AC
:100340008927882331F489819A818130910509F4C4
:10035000A9CF0F900F90CF91DF910895DF93CF93A6
:100360000F920F92CDB7DEB7E4E8F0E01182108271
:10037000109201031092000345C08AEA90E063E204
:1003800070E00E942503E0E2F0E08081882F90E099
:10039000817090708823D1F08091000390910103C7
:1003A000AA2797FDA095BA2FBC01CD010E949E03FC
:1003B000DC01CB01BC01CD012DEC3CEC44E351E46C
:1003C0000E946E03181614F00E9419028091000317
:1003D00090910103AA2797FDA095BA2FBC01CD01EA
:1003E0000E949E03DC01CB01BC01CD012DEC3CEC55
:1003F00044E351E40E943E03882324F081E090E02E
:100400009A838983E0E2F0E08081882F90E0817018
:100410009070982F81E08927882331F489819A810F
:100420008130910509F4A9CF0F900F90CF91DF9102
:100430000895DF93CF93CDB7DEB780E090E060E022
:1004400070E00E942503F9CF1F920F920FB60F9212
:1004500000905B000F9211248F939F93EF93FF9373
:10046000DF93CF93CDB7DEB7E4E8F0E011821082DE
:100470008091000390910103019690930103809372
:100480000003CF91DF91FF91EF919F918F910F909A
:1004900000925B000F900FBE0F901F9018951F9257
:1004A0000F920FB60F9200905B000F9211248F9362
:1004B000AF93BF93EF93FF93DF93CF930F92CDB79B
:1004C000DEB7E7E4F0E08081882319F4E8E4F0E0A7
:1004D0008081AEE2B0E0EEE2F0E080818F7E8C932E
:1004E000AEE2B0E0EEE2F0E08081877F8C93E7E45B
:1004F000F0E08081882339F0AEE2B0E0EEE2F0E097
:10050000808180618C93E8E4F0E08081882339F079
:10051000AEE2B0E0EEE2F0E0808188608C930F9074
:10052000CF91DF91FF91EF91BF91AF918F910F909C
:1005300000925B000F900FBE0F901F9018951F92B6
:100540000F920FB60F9200905B000F9211248F93C1
:10055000AF93BF93EF93FF93DF93CF93CDB7DEB706
:10056000AEE2B0E0EEE2F0E080818F7E8C93CF913E
:10057000DF91FF91EF91BF91AF918F910F9000921A
:100580005B000F900FBE0F901F9018951F920F9257
:100590000FB60F9200905B000F9211248F93AF93D0
:1005A000BF93EF93FF93DF93CF93CDB7DEB7AEE268
:1005B000B0E0EEE2F0E08081877F8C93CF91DF9115
:1005C000FF91EF91BF91AF918F910F9000925B00DF
:1005D0000F900FBE0F901F901895DF93CF93CDB75C
:1005E000DEB7AEE2B0E0EEE2F0E080818F7E8C9389
:1005F000AEE2B0E0EEE2F0E08081877F8C93E4E44D
:10060000F0E01082E5E4F0E083E08083EEE6F0E0E5
:1006100087E08083E7E4F0E01082E8E4F0E0108215
:10062000E0E8F0E01082E1E8F0E084E08083EFE6CB
:10063000F0E082E08083E8E8F0E08AE698E19183E8
:1006400080837894CF91DF910895DF93CF9300D08A
:100650000F92CDB7DEB79A8389837C836B83E7E4FF
:10066000F0E089818083E8E4F0E08B8180830F9063
:100670000F900F900F90CF91DF910895A8E1B0E017
:10068000E4E4F3E00C94FD0569837A838B839C8317
:100690002D833E834F83588789E0E82EF12CEC0EA2
:1006A000FD1ECE010196B7010E9420058E010F5E4E
:1006B0001F4FCE010596B8010E9420058985823022
:1006C00040F08989823028F0C701B8010E9498055E
:1006D00001C08FEF6896E6E00C941906A8E1B0E03F
:1006E000E4E7F3E00C94FD0569837A838B839C83B4
:1006F0002D833E834F83588789E0E82EF12CEC0E42
:10070000FD1ECE010196B7010E9420058E010F5EED
:100710001F4FCE010596B8010E94200589858230C1
:1007200040F08989823028F0C701B8010E949805FD
:1007300001C081E06896E6E00C941906A8E0B0E0FC
:10074000E4EAF3E00C94FA059B01AC0183E08983B1
:10075000DA01C9018827B7FD83959927AA27BB2706
:10076000B82E211531054105510519F482E0898320
:100770003AC08823A9F0203080E0380780E048079D
:1007800080E8580729F460E070E080E09FEC30C01A
:10079000EE24FF248701E21AF30A040B150B02C0B2
:1007A00079018A018EE1C82ED12CDC82CB82ED82C8
:1007B000FE820F831887C801B7010E94FC030197CE
:1007C0001816190684F4082E04C0EE0CFF1C001F36
:1007D000111F0A94D2F7ED82FE820F831887C81A80
:1007E000D90ADC82CB82BA82CE0101960E944B04E8
:1007F0002896E9E00C941606EF92FF920F931F9350
:100800007B018C0180E0E81680E0F80681E00807B3
:1008100080E0180788F48FEFE816F1040105110550
:1008200031F028F088E090E0A0E0B0E017C080E070
:1008300090E0A0E0B0E012C080E0E81680E0F806AA
:1008400080E0080781E0180728F088E190E0A0E048
:10085000B0E004C080E190E0A0E0B0E020E230E051
:1008600040E050E0281B390B4A0B5B0B04C0169587
:100870000795F794E7948A95D2F7F701E050FE4F79
:100880008081281B310941095109C9011F910F912C
:10089000FF90EF900895DF92EF92FF920F931F93D6
:1008A000FC01E480F58006811781D180808182304F
:1008B00048F480E090E0A0E1B0E0E82AF92A0A2BB1
:1008C0001B2BA5C0843009F49FC0823021F4EE2494
:1008D000FF24870105C0E114F1040105110519F495
:1008E000E0E0F0E096C0628173819FEF62387907A3
:1008F0000CF05BC022E83FEF261B370B2A31310595
:100900002CF020E030E040E050E02AC0B801A70120
:10091000022E04C076956795579547950A94D2F7AD
:1009200081E090E0A0E0B0E004C0880F991FAA1F0A
:10093000BB1F2A95D2F70197A109B1098E219F21EA
:10094000A023B1230097A105B10521F081E090E03B
:10095000A0E0B0E09A01AB01282B392B4A2B5B2B8E
:10096000DA01C9018F779070A070B0708034910562
:10097000A105B10539F427FF09C0205C3F4F4F4F57
:100980005F4F04C0215C3F4F4F4F5F4FE0E0F0E00E
:100990002030A0E03A07A0E04A07A0E45A0710F090
:1009A000E1E0F0E079018A0127C06038710564F563
:1009B000FB01E158FF4FD801C7018F779070A070FD
:1009C000B07080349105A105B10539F4E7FE0DC082
:1009D00080E490E0A0E0B0E004C08FE390E0A0E00D
:1009E000B0E0E80EF91E0A1F1B1F17FF05C0169581
:1009F0000795F794E794319687E016950795F79455
:100A0000E7948A95D1F705C0EE24FF248701EFEF24
:100A1000F0E06E2F679566276795902F9F77D794A4
:100A2000DD24D7948E2F8695492F462B582F5D298C
:100A3000B701CA011F910F91FF90EF90DF900895C9
:100A4000FC01DB01408151812281622F6F7770E0D0
:100A5000221F2227221F9381892F880F822B282F64
:100A600030E0991F9927991F11969C931197211592
:100A70003105A9F5411551056105710511F482E0B3
:100A800037C082E89FEF13969C938E9312979A013A
:100A9000AB0167E0220F331F441F551F6A95D1F742
:100AA00083E08C930DC0220F331F441F551F1296F5
:100AB0008D919C911397019713969C938E93129707
:100AC000203080E0380780E0480780E4580758F37A
:100AD00014962D933D934D935C93179708952F3F54
:100AE000310579F4411551056105710519F484E06A
:100AF0008C93089564FF03C081E08C9312C01C9214
:100B000010C02F57304013963C932E93129783E0DA
:100B10008C9387E0440F551F661F771F8A95D1F786
:100B2000706414964D935D936D937C93179708951D
:100B30001F93DC01FB019C91923008F447C0808137
:100B4000823008F443C0943051F411961C918430E3
:100B500099F58181682F70E0611B71093FC0843075
:100B600021F0923031F48230B9F18181882389F10A
:100B70002DC011961C9111978230F1F081811817C8
:100B8000D9F412962D913C9113978281938182170B
:100B9000930794F028173907BCF014968D919D9116
:100BA0000D90BC91A02D2481358146815781281755
:100BB00039074A075B0718F4112341F00AC082176E
:100BC0009307A407B50740F4112319F061E070E022
:100BD00005C06FEF7FEF02C060E070E0CB011F91B6
:100BE00008952F923F924F925F926F927F928F92D1
:100BF0009F92AF92BF92CF92DF92EF92FF920F93AC
:100C00001F93CF93DF93CDB7DEB7CA1BDB0B0FB6B5
:100C1000F894DEBF0FBECDBF19942A883988488862
:100C20005F846E847D848C849B84AA84B984C88408
:100C3000DF80EE80FD800C811B81AA81B981CE0FFF
:100C4000D11D0FB6F894DEBF0FBECDBFED010895E4
:040C5000F894FFCF46
:100C5400000102020303030304040404040404045F
:100C64000505050505050505050505050505050530
:100C74000606060606060606060606060606060610
:100C84000606060606060606060606060606060600
:100C940007070707070707070707070707070707E0
:100CA40007070707070707070707070707070707D0
:100CB40007070707070707070707070707070707C0
:100CC40007070707070707070707070707070707B0
:100CD4000808080808080808080808080808080890
:100CE4000808080808080808080808080808080880
:100CF4000808080808080808080808080808080870
:100D0400080808080808080808080808080808085F
:100D1400080808080808080808080808080808084F
:100D2400080808080808080808080808080808083F
:100D3400080808080808080808080808080808082F
:100D4400080808080808080808080808080808081F
:00000001FF
