:100000000C9472000C9493000C9493000C94930045
:100010000C9493000C9493000C9493000C94930014
:100020000C9493000C9493000C9493000C94930004
:100030000C9493000C9404080C9445080C94D1077C
:100040000C9493000C94D2060C9493000C9493009F
:100050000C9493000C94D6080C94FD080C9486081C
:100060000C9493000C9493000C9493000C949300C4
:100070000C9493000C9493000C9493000C949300B4
:100080000C9493000C9493000C9493000C949300A4
:100090000C9493000C9493000C9493000C94930094
:1000A0000C9493000C94FD060C949C070C94930004
:1000B0000C9493000C9493000C9493000C94930074
:1000C0000C9493000C9493000C9493000C94930064
:1000D0000C9493000C9493000C9493000C94930054
:1000E0000C94930011241FBECFEFD1E2DEBFCDBF31
:1000F00000E00CBF13E0A0E0B2E0ECE1F1E200E0D0
:100100000BBF02C007900D92A830B107D9F713E0DA
:10011000A8E0B3E001C01D92AA31B107E1F70E9447
:1001200095000C948C100C940000DF93CF93CDB706
:10013000DEB70E94A4000E9424090E94770380E099
:1001400090E0CF91DF910895DF93CF93CDB7DEB7E5
:10015000ADE2B0E0EDE2F0E0808188608C93ADE24A
:10016000B0E0EDE2F0E0808180618C93A1E0B1E04D
:10017000E1E0F1E0808180618C93ADE2B0E0EDE2FE
:10018000F0E0808182608C93ADE2B0E0EDE2F0E0DF
:10019000808181608C93A1E2B0E0E1E2F0E08081B7
:1001A0008E7F8C93A1E2B0E0E1E2F0E080818D7F70
:1001B0008C93AAE0B1E0EAE0F1E080818E7F8C933D
:1001C000A7E2B0E0E7E2F0E0808180628C93A0E3F8
:1001D000B0E0E0E3F0E080818F778C93A0E3B0E0C3
:1001E000E0E3F0E080818F7B8C93A0E3B0E0E0E37C
:1001F000F0E080818E7F8C93CF91DF910895DF9323
:10020000CF93CDB7DEB7EE970FB6F894DEBF0FBE33
:10021000CDBF81E090E09EAF8DAFE4E8F0E01182C9
:10022000108210920F0310920E0353C2EFE2F0E01F
:100230008081882309F48BC080E090E060E070E06A
:100240000E948C0980910E0390910F039CAF8BAF9D
:10025000EFE2F0E08081882309F473C080E090E051
:10026000A0E0B0E48DAB9EABAFABB8AF6DA97EA9FB
:100270008FA998AD20E030E04AE755E40E947B0B5F
:10028000DC01CB0189AB9AABABABBCAB69A97AA95A
:100290008BA99CA920E030E040E85FE30E94D50CE8
:1002A00088232CF481E090E098AB8FA73FC069A928
:1002B0007AA98BA99CA920E03FEF4FE757E40E9461
:1002C000750C18164CF56DA97EA98FA998AD20E084
:1002D00030E040E251E40E947B0BDC01CB01BC0129
:1002E000CD010E94A509DC01CB0198AB8FA70FC0FF
:1002F00080E991E09EA78DA78DA59EA50197F1F7B6
:100300009EA78DA78FA598A9019798AB8FA78FA5BA
:1003100098A9009769F79CCF69A97AA98BA99CA98C
:100320000E94A509DC01CB0198AB8FA78FA598A9E6
:100330009CA78BA78BA59CA50197F1F79CA78BA7E2
:1003400087CF8BAD9CAD90930F0380930E0380916C
:1003500010039091110321E08930920708F027C122
:10036000E0E2F0E08081882F90E08170907000974B
:1003700079F4E0E2F0E08081882F90E08270907064
:10038000009731F48AEA90E06AEA70E00E948C09F2
:10039000E0E2F0E08081882F90E081709070882307
:1003A00009F478C08AEA90E060E070E00E948C096D
:1003B00080E090E0A0E2B2E48FA398A7A9A7BAA733
:1003C0006FA178A589A59AA520E030E04AE755E419
:1003D0000E947B0BDC01CB018BA39CA3ADA3BEA32E
:1003E0006BA17CA18DA19EA120E030E040E85FE3FD
:1003F0000E94D50C88232CF481E090E09AA389A375
:100400003FC06BA17CA18DA19EA120E03FEF4FE7F3
:1004100057E40E94750C18164CF56FA178A589A5B4
:100420009AA520E030E040E251E40E947B0BDC0121
:10043000CB01BC01CD010E94A509DC01CB019AA32F
:1004400089A30FC080E991E098A38F8F8F8D98A129
:100450000197F1F798A38F8F89A19AA101979AA389
:1004600089A389A19AA1009769F714C06BA17CA107
:100470008DA19EA10E94A509DC01CB019AA389A3AD
:1004800089A19AA19E8F8D8F8D8D9E8D0197F1F7F9
:100490009E8F8D8FE0E2F0E08081882F90E0827067
:1004A0009070009709F478C080E090E06AEA70E00C
:1004B0000E948C0980E090E0A0E2B2E4898F9A8FDC
:1004C000AB8FBC8F698D7A8D8B8D9C8D20E030E059
:1004D0004AE755E40E947B0BDC01CB018D8B9E8BA0
:1004E000AF8BB88F6D897E898F89988D20E030E041
:1004F00040E85FE30E94D50C88232CF481E090E073
:100500009C8B8B8B3FC06D897E898F89988D20E075
:100510003FEF4FE757E40E94750C18164CF5698DB4
:100520007A8D8B8D9C8D20E030E040E251E40E947A
:100530007B0BDC01CB01BC01CD010E94A509DC01D4
:10054000CB019C8B8B8B0FC080E991E09A8B898BC0
:1005500089899A890197F1F79A8B898B8B899C8974
:1005600001979C8B8B8B8B899C89009769F714C0B2
:100570006D897E898F89988D0E94A509DC01CB0148
:100580009C8B8B8B8B899C89988B8F878F85988987
:100590000197F1F7988B8F8780910E0390910F034D
:1005A000843B91050CF495C01EAE1DAE92C08091A7
:1005B0000E0390910F039AAF89AF80E090E060E066
:1005C00070E00E948C09A2E0B1E0E2E0F1E08081FD
:1005D00080618C9380E090E0AAEFB3E48B879C87E6
:1005E000AD87BE876B857C858D859E8520E030E05C
:1005F0004AE755E40E947B0BDC01CB018F8398878F
:10060000A987BA876F81788589859A8520E030E04F
:1006100040E85FE30E94D50C88232CF481E090E051
:100620009E838D833FC06F81788589859A8520E080
:100630003FEF4FE757E40E94750C18164CF56B8599
:100640007C858D859E8520E030E040E251E40E946B
:100650007B0BDC01CB01BC01CD010E94A509DC01B3
:10066000CB019E838D830FC080E991E09C838B83B7
:100670008B819C810197F1F79C838B838D819E8177
:1006800001979E838D838D819E81009769F714C0A9
:100690006F81788589859A850E94A509DC01CB0147
:1006A0009E838D838D819E819A83898389819A819E
:1006B0000197F1F79A838983A2E0B1E0E2E0F1E0EB
:1006C00080818F7E8C9389AD9AAD90930F03809338
:1006D0000E038DAD9EAD009709F0A8CDEE960FB636
:1006E000F894DEBF0FBECDBFCF91DF910895DF93A9
:1006F000CF93CDB7DEB7EE970FB6F894DEBF0FBE3F
:10070000CDBF81E090E09EAF8DAFE4E8F0E01182D4
:10071000108210920F0310920E036DC2EFE2F0E010
:100720008081882309F48BC080E090E060E070E075
:100730000E948C0980910E0390910F039CAF8BAFA8
:10074000EFE2F0E08081882309F473C080E090E05C
:10075000A0E0B0E48DAB9EABAFABB8AF6DA97EA906
:100760008FA998AD20E030E04AE755E40E947B0B6A
:10077000DC01CB0189AB9AABABABBCAB69A97AA965
:100780008BA99CA920E030E040E85FE30E94D50CF3
:1007900088232CF481E090E098AB8FA73FC069A933
:1007A0007AA98BA99CA920E03FEF4FE757E40E946C
:1007B000750C18164CF56DA97EA98FA998AD20E08F
:1007C00030E040E251E40E947B0BDC01CB01BC0134
:1007D000CD010E94A509DC01CB0198AB8FA70FC00A
:1007E00080E991E09EA78DA78DA59EA50197F1F7C1
:1007F0009EA78DA78FA598A9019798AB8FA78FA5C6
:1008000098A9009769F79CCF69A97AA98BA99CA997
:100810000E94A509DC01CB0198AB8FA78FA598A9F1
:100820009CA78BA78BA59CA50197F1F79CA78BA7ED
:1008300087CF8BAD9CAD90930F0380930E03809177
:1008400010039091110321E08930920740F48091C8
:100850000C0390910D0321E08930920798F080916C
:10086000080390910903A0910A03B0910B03BC0106
:10087000CD0120E030E040EA51E40E94750C1816EA
:100880000CF027C1E0E2F0E08081882F90E08170D9
:100890009070009779F4E0E2F0E08081882F90E09A
:1008A00082709070009731F48AEA90E06AEA70E012
:1008B0000E948C09E0E2F0E08081882F90E0817056
:1008C0009070882309F478C08AEA90E060E070E0D4
:1008D0000E948C0980E090E0A0E2B2E48FA398A788
:1008E000A9A7BAA76FA178A589A59AA520E030E0AD
:1008F0004AE755E40E947B0BDC01CB018BA39CA350
:10090000ADA3BEA36BA17CA18DA19EA120E030E090
:1009100040E85FE30E94D50C88232CF481E090E04E
:100920009AA389A33FC06BA17CA18DA19EA120E0C9
:100930003FEF4FE757E40E94750C18164CF56FA176
:1009400078A589A59AA520E030E040E251E40E9414
:100950007B0BDC01CB01BC01CD010E94A509DC01B0
:10096000CB019AA389A30FC080E991E098A38F8F50
:100970008F8D98A10197F1F798A38F8F89A19AA1E4
:1009800001979AA389A389A19AA1009769F714C036
:100990006BA17CA18DA19EA10E94A509DC01CB01C8
:1009A0009AA389A389A19AA19E8F8D8F8D8D9E8DEB
:1009B0000197F1F79E8F8D8FE0E2F0E08081882F24
:1009C00090E082709070009709F478C080E090E029
:1009D0006AEA70E00E948C0980E090E0A0E2B2E454
:1009E000898F9A8FAB8FBC8F698D7A8D8B8D9C8D03
:1009F00020E030E04AE755E40E947B0BDC01CB01AC
:100A00008D8B9E8BAF8BB88F6D897E898F89988DEA
:100A100020E030E040E85FE30E94D50C88232CF40E
:100A200081E090E09C8B8B8B3FC06D897E898F89A4
:100A3000988D20E03FEF4FE757E40E94750C1816A1
:100A40004CF5698D7A8D8B8D9C8D20E030E040E2F5
:100A500051E40E947B0BDC01CB01BC01CD010E9463
:100A6000A509DC01CB019C8B8B8B0FC080E991E049
:100A70009A8B898B89899A890197F1F79A8B898B4F
:100A80008B899C8901979C8B8B8B8B899C89009788
:100A900069F714C06D897E898F89988D0E94A50998
:100AA000DC01CB019C8B8B8B8B899C89988B8F87EE
:100AB0008F8598890197F1F7988B8F8780910E0326
:100AC00090910F03843B91050CF495C01EAE1DAEB2
:100AD00092C080910E0390910F039AAF89AF80E08E
:100AE00090E060E070E00E948C09A2E0B1E0E2E0FA
:100AF000F1E0808180618C9380E090E0AAEFB3E424
:100B00008B879C87AD87BE876B857C858D859E8511
:100B100020E030E04AE755E40E947B0BDC01CB018A
:100B20008F839887A987BA876F81788589859A8509
:100B300020E030E040E85FE30E94D50C88232CF4ED
:100B400081E090E09E838D833FC06F8178858985A9
:100B50009A8520E03FEF4FE757E40E94750C181686
:100B60004CF56B857C858D859E8520E030E040E2EC
:100B700051E40E947B0BDC01CB01BC01CD010E9442
:100B8000A509DC01CB019E838D830FC080E991E034
:100B90009C838B838B819C810197F1F79C838B8352
:100BA0008D819E8101979E838D838D819E8100978B
:100BB00069F714C06F81788589859A850E94A50997
:100BC000DC01CB019E838D838D819E819A838983F5
:100BD00089819A810197F1F79A838983A2E0B1E034
:100BE000E2E0F1E080818F7E8C9389AD9AAD9093A5
:100BF0000F0380930E038DAD9EAD009709F08ECD4F
:100C0000EE960FB6F894DEBF0FBECDBFCF91DF9149
:100C10000895DF93CF930F920F92CDB7DEB7E4E83C
:100C2000F0E01182108210920F0310920E0345C063
:100C300083E290E06AEA70E00E948C09E0E2F0E072
:100C40008081882F90E0817090708823D1F080910E
:100C50000E0390910F03AA2797FDA095BA2FBC0110
:100C6000CD010E94350DDC01CB01BC01CD012DEC85
:100C70003CEC44E351E40E94050D181614F00E9468
:100C8000C70680910E0390910F03AA2797FDA095A8
:100C9000BA2FBC01CD010E94350DDC01CB01BC0196
:100CA000CD012DEC3CEC44E351E40E94A50C8823DB
:100CB00024F081E090E09A83898389819A81813050
:100CC000910509F4B5CF0F900F90CF91DF91089562
:100CD000DF93CF930F920F92CDB7DEB7E4E8F0E049
:100CE0001182108210920F0310920E0345C08AEAFF
:100CF00090E063E270E00E948C09E0E2F0E0808125
:100D0000882F90E0817090708823D1F080910E033D
:100D100090910F03AA2797FDA095BA2FBC01CD0192
:100D20000E94350DDC01CB01BC01CD012DEC3CEC6A
:100D300044E351E40E94050D181614F00E94C70602
:100D400080910E0390910F03AA2797FDA095BA2FCB
:100D5000BC01CD010E94350DDC01CB01BC01CD01F0
:100D60002DEC3CEC44E351E40E94A50C882324F0D4
:100D700081E090E09A83898389819A81813091050D
:100D800009F4B5CF0F900F90CF91DF910895DF93C5
:100D9000CF93CDB7DEB780E090E060E070E00E94D6
:100DA0008C09F9CF1F920F920FB60F9200905B0043
:100DB0000F9211248F939F93EF93FF93DF93CF9321
:100DC000CDB7DEB7E4E8F0E01182108280910E0327
:100DD00090910F03019690930F0380930E03CF9190
:100DE000DF91FF91EF919F918F910F9000925B00A7
:100DF0000F900FBE0F901F9018951F920F920FB675
:100E00000F9200905B000F921124EF92FF920F93CC
:100E10001F932F933F934F935F936F937F938F9382
:100E20009F93AF93BF93EF93FF93DF93CF93CDB790
:100E3000DEB7E1EAF0E08081882F90E08074907066
:100E4000009781F0A1EAB0E0E1EAF0E080818F7BD9
:100E50008C93E4EAF0E08081918190931903809370
:100E6000180350C0A1EAB0E0E1EAF0E080818C9381
:100E7000E4EAF0E080819181909313038093120360
:100E800080911203909113039C0140E050E0809107
:100E9000180390911903CC01A0E0B0E079018A0118
:100EA000E81AF90A0A0B1B0BD801C7018093140337
:100EB00090931503A0931603B09317038091140326
:100EC00090911503A0911603B0911703B695A795BD
:100ED00097958795BC01CD010E94E70DDC01CB0100
:100EE000BC01CD0128E23EE74CE85CE30E947B0BAD
:100EF000DC01CB018093080390930903A0930A03BC
:100F0000B0930B03CF91DF91FF91EF91BF91AF9120
:100F10009F918F917F916F915F914F913F912F9111
:100F20001F910F91FF90EF900F9000925B000F9038
:100F30000FBE0F901F9018951F920F920FB60F9231
:100F400000905B000F9211248F93AF93BF93EF93A8
:100F5000FF93DF93CF93CDB7DEB7A8E2B0E0E8E22E
:100F6000F0E080818F7D8C93A2E7B0E0E2E7F0E0D3
:100F7000808180628C93A1EAB0E0E1EAF0E08081B8
:100F800080648C93CF91DF91FF91EF91BF91AF91EE
:100F90008F910F9000925B000F900FBE0F901F90EB
:100FA00018951F920F920FB60F9200905B000F9250
:100FB00011248F939F93AF93BF93EF93FF93DF938E
:100FC000CF93CDB7DEB7A8E2B0E0E8E2F0E08081F1
:100FD00080628C93E4EAF0E011821082E8EAF0E0AB
:100FE00084E190E091838083CF91DF91FF91EF9135
:100FF000BF91AF919F918F910F9000925B000F90E6
:101000000FBE0F901F9018951F920F920FB60F9260
:1010100000905B000F9211248F939F93AF93BF9327
:10102000EF93FF93DF93CF93CDB7DEB7EAE7F0E01E
:101030008081882F90E080719070009741F0E8E700
:10104000F0E0808191819093110380931003ACE7CD
:10105000B0E0ECE7F0E080818E7F8C93AAE7B0E00F
:10106000EAE7F0E0808180648C93CF91DF91FF917B
:10107000EF91BF91AF919F918F910F9000925B0084
:101080000F900FBE0F901F9018951F920F920FB6E2
:101090000F9200905B000F9211248F939F93AF9358
:1010A000BF93EF93FF93DF93CF93CDB7DEB7EAE71C
:1010B000F0E08081882F90E080719070009741F07F
:1010C000E8E7F0E08081918190930D0380930C0319
:1010D000ACE7B0E0ECE7F0E0808187608C93AAE7B2
:1010E000B0E0EAE7F0E0808180648C93CF91DF91FB
:1010F000FF91EF91BF91AF919F918F910F900092CF
:101100005B000F900FBE0F901F9018951F920F92CB
:101110000FB60F9200905B000F9211248F93AF9344
:10112000BF93EF93FF93DF93CF93CDB7DEB7E7E4A1
:10113000F0E08081882339F4AEE2B0E0EEE2F0E046
:1011400080818F7E8C93E8E4F0E08081882339F4FD
:10115000AEE2B0E0EEE2F0E08081877F8C93E7E4DE
:10116000F0E08081882339F0AEE2B0E0EEE2F0E01A
:10117000808180618C93E8E4F0E08081882339F0FD
:10118000AEE2B0E0EEE2F0E0808188608C93CF9137
:10119000DF91FF91EF91BF91AF918F910F900092EE
:1011A0005B000F900FBE0F901F9018951F920F922B
:1011B0000FB60F9200905B000F9211248F93AF93A4
:1011C000BF93EF93FF93DF93CF93CDB7DEB7AEE23C
:1011D000B0E0EEE2F0E080818F7E8C93CF91DF91E2
:1011E000FF91EF91BF91AF918F910F9000925B00B3
:1011F0000F900FBE0F901F9018951F920F920FB671
:101200000F9200905B000F9211248F93AF93BF93C6
:10121000EF93FF93DF93CF93CDB7DEB7AEE2B0E0AD
:10122000EEE2F0E08081877F8C93CF91DF91FF9198
:10123000EF91BF91AF918F910F9000925B000F9053
:101240000FBE0F901F901895DF93CF93CDB7DEB7E9
:10125000AEE2B0E0EEE2F0E080818F7E8C93AEE211
:10126000B0E0EEE2F0E08081877F8C93E4E4F0E090
:101270001082E5E4F0E083E08083EEE6F0E087E0D2
:101280008083E7E4F0E01082E8E4F0E01082E0E838
:10129000F0E01082E1E8F0E084E08083EFE6F0E047
:1012A00082E08083E8E8F0E08AE698E19183808339
:1012B000E0EBF0E01082E1EBF0E085E08083E0E736
:1012C000F0E087E08083E3EBF0E085E58083E4EB0A
:1012D000F0E08AEA8083E0EAF0E01082E1EAF0E000
:1012E00082E08083A2E7B0E0E2E7F0E08081826004
:1012F0008C93ECE7F0E080E48083EAE7F0E087E0BD
:101300008083AAE7B0E0EAE7F0E0808180688C9310
:101310007894CF91DF910895DF93CF9300D00F920F
:10132000CDB7DEB79A8389837C836B83E7E4F0E0F3
:1013300089818083E8E4F0E08B8180830F900F90B7
:101340000F900F90CF91DF910895EF92FF920F933E
:101350001F937B018C0120E030E040E05FE40E94BD
:10136000A50C88238CF0C801B70120E030E040E0F4
:101370005FE40E941D0B0E94930D9B01AC01205065
:1013800030404040504806C0C801B7010E94930D4C
:101390009B01AC01B901CA011F910F91FF90EF9021
:1013A0000895A0E0B0E0E7EDF9E00C945510DC0101
:1013B0002B01FA019C91923008F439C1EB0188812C
:1013C000823008F433C1943069F4843009F02FC1BD
:1013D00011969C9111978981981709F428C1A0E072
:1013E000B2E025C1843009F421C18230A9F49230E1
:1013F00009F01DC19A01AD0188E0EA010990AE0132
:10140000E90109929E018150C1F7E201898111969B
:101410009C918923818308C1923009F407C11296F7
:101420002D903C901397EB018A819B811496AD908F
:10143000BD90CD90DC901797EC80FD800E811F81D0
:101440009101281B390BB90137FF04C066277727A4
:10145000621B730B603271050CF061C0121613062B
:101460006CF537014801062E04C096948794779452
:1014700067940A94D2F721E030E040E050E004C0E5
:10148000220F331F441F551F6A95D2F72150304059
:10149000404050402E213F2140235123211531054A
:1014A0004105510521F021E030E040E050E07901B4
:1014B0008A01E628F728082919293CC0232BD1F1F5
:1014C000260E371E35014601062E04C096948794D9
:1014D000779467940A94D2F721E030E040E050E03E
:1014E00004C0220F331F441F551F6A95D2F72150A5
:1014F0003040404050402A213B214C215D212115A4
:1015000031054105510521F021E030E040E050E097
:1015100059016A01A628B728C828D9280BC0821506
:1015200093052CF01C01AA24BB24650103C0EE2402
:10153000FF24870111969C91D20111968C919817E6
:1015400009F445C0992339F0A80197012A193B09EC
:101550004C095D0906C0A60195012E193F09400BF3
:10156000510B57FD08C011823382228224833583B8
:10157000468357831DC081E081833382228288277E
:101580009927DC01821B930BA40BB50B84839583F5
:10159000A683B7830DC0220F331F441F551F24831A
:1015A0003583468357838281938101979383828316
:1015B0002481358146815781DA01C9010197A1094A
:1015C000B1098F5F9F4FAF4FBF4328F30BC091838B
:1015D00033822282EA0CFB1C0C1D1D1DE482F58265
:1015E0000683178383E08083248135814681578178
:1015F00057FF1AC0C901AA2797FDA095BA2F81707D
:101600009070A070B0705695479537952795822BAE
:10161000932BA42BB52B84839583A683B7838281D8
:101620009381019693838283DF0101C0D201CD01B2
:10163000CDB7DEB7E2E10C947110A0E2B0E0E3E2D6
:10164000FBE00C94611069837A838B839C832D83E8
:101650003E834F835887E9E0EE2EF12CEC0EFD1E01
:10166000CE010196B7010E94840F8E010F5E1F4FBD
:10167000CE010596B8010E94840F8A8991E08927DE
:101680008A8BC701B801AE01475E5F4F0E94D10946
:101690000E94AF0EA096E6E00C947D10A0E2B0E0B0
:1016A000E4E5FBE00C94611069837A838B839C836F
:1016B0002D833E834F835887F9E0EF2EF12CEC0EFB
:1016C000FD1ECE010196B7010E94840F8E010F5EB0
:1016D0001F4FCE010596B8010E94840FC701B801C3
:1016E000AE01475E5F4F0E94D1090E94AF0EA096E7
:1016F000E6E00C947D10A0E2B0E0E1E8FBE00C94A1
:10170000551069837A838B839C832D833E834F831B
:101710005887CE010196BE01675F7F4F0E94840FFC
:10172000CE010596BE016F5E7F4F0E94840F9985A2
:10173000923088F089898230C8F0943019F4823070
:1017400051F404C0843029F4923081F480E092E0B6
:10175000C6C0923049F420E09A858A89981321E026
:101760002A87CE010996BBC0823049F420E09A85D1
:101770008A89981321E02A8BCE014196B0C02D842E
:101780003E844F8458886D887E888F88988CEE249C
:10179000FF248701AA24BB24650140E050E060E0FB
:1017A00070E0E0E0F0E0C10181709070892BE9F019
:1017B000E60CF71C081D191D9A01AB012A0D3B1DF3
:1017C0004C1D5D1D80E090E0A0E0B0E0E614F70461
:1017D0000805190520F481E090E0A0E0B0E0BA012E
:1017E000A901480F591F6A1F7B1FAA0CBB1CCC1CE8
:1017F000DD1C97FE08C081E090E0A0E0B0E0A82AE0
:10180000B92ACA2ADB2A3196E032F10549F0660C82
:10181000771C881C991C5694479437942794C3CFFF
:10182000FA85EA892B893C898B859C85280F391F8D
:101830002E5F3F4F17C0CA0181709070892B61F0F5
:1018400016950795F794E79480E090E0A0E0B0E863
:10185000E82AF92A0A2B1B2B769567955795479509
:101860002F5F3F4F77FDE7CF0CC0440F551F661F1A
:10187000771F17FD4160EE0CFF1C001F111F215048
:101880003040403090E0590790E0690790E47907D4
:1018900060F32B8F3C8FDB01CA018F779070A070B3
:1018A000B07080349105A105B10561F447FD0AC00F
:1018B000E114F1040105110529F0405C5F4F6F4F01
:1018C0007F4F40781A8EFE1711F081E08A8F4D8F7E
:1018D0005E8F6F8F78A383E0898FCE0149960E9437
:1018E000AF0EA096E2E10C947110A8E1B0E0EBE736
:1018F000FCE00C94611069837A838B839C832D8335
:101900003E834F83588789E0E82EF12CEC0EFD1EB4
:10191000CE010196B7010E94840F8E010F5E1F4F0A
:10192000CE010596B8010E94840F8985823040F06F
:101930008989823028F0C701B8010E94FC0F01C0DC
:101940008FEF6896E6E00C947D10A8E1B0E0EBEA3A
:10195000FCE00C94611069837A838B839C832D83D4
:101960003E834F83588789E0E82EF12CEC0EFD1E54
:10197000CE010196B7010E94840F8E010F5E1F4FAA
:10198000CE010596B8010E94840F8985823040F00F
:101990008989823028F0C701B8010E94FC0F01C07C
:1019A0008FEF6896E6E00C947D10A8E1B0E0EBEDD7
:1019B000FCE00C94611069837A838B839C832D8374
:1019C0003E834F83588789E0E82EF12CEC0EFD1EF4
:1019D000CE010196B7010E94840F8E010F5E1F4F4A
:1019E000CE010596B8010E94840F8985823040F0AF
:1019F0008989823028F0C701B8010E94FC0F01C01C
:101A000081E06896E6E00C947D10A8E1B0E0EBE0A0
:101A1000FDE00C94611069837A838B839C832D8312
:101A20003E834F83588789E0E82EF12CEC0EFD1E93
:101A3000CE010196B7010E94840F8E010F5E1F4FE9
:101A4000CE010596B8010E94840F8985823040F04E
:101A50008989823028F0C701B8010E94FC0F01C0BB
:101A600081E06896E6E00C947D10A8E0B0E0EBE33E
:101A7000FDE00C945E109B01AC0183E08983DA01E8
:101A8000C9018827B7FD83959927AA27BB27B82EB8
:101A9000211531054105510519F482E089833AC0C9
:101AA0008823A9F0203080E0380780E0480780E8EC
:101AB000580729F460E070E080E09FEC30C0EE242D
:101AC000FF248701E21AF30A040B150B02C0790107
:101AD0008A018EE1C82ED12CDC82CB82ED82FE827F
:101AE0000F831887C801B7010E94600E019718166E
:101AF000190684F4082E04C0EE0CFF1C001F111FF1
:101B00000A94D2F7ED82FE820F831887C81AD90A89
:101B1000DC82CB82BA82CE0101960E94AF0E28965B
:101B2000E9E00C947A10ACE0B0E0E9E9FDE00C9457
:101B3000651069837A838B839C83CE010196BE01F5
:101B40006B5F7F4F0E94840F8D81823061F1823004
:101B500050F1843021F48E81882351F12EC02F81E1
:101B6000388537FD20C06E812F3131051CF066238A
:101B7000F9F023C08EE190E0821B930B29853A8512
:101B80004B855C8504C056954795379527958A9572
:101B9000D2F76623B1F050954095309521953F4F8F
:101BA0004F4F5F4F0EC020E030E040E050E009C0F2
:101BB0002FEF3FEF4FEF5FE704C020E030E040E061
:101BC00050E8B901CA012C96E2E00C948110A8E01B
:101BD000B0E0EDEEFDE00C945D107B018C01611531
:101BE00071058105910519F482E0898360C083E065
:101BF00089838EE1C82ED12CDC82CB82ED82FE82DD
:101C00000F831887C801B7010E94600EFC0131974D
:101C1000F7FF3BC0222733272E1B3F0B57016801DC
:101C2000022E04C0D694C794B794A7940A94D2F70E
:101C300040E050E060E070E081E090E0A0E0B0E0E3
:101C400004C0880F991FAA1FBB1F2A95D2F70197BE
:101C5000A109B1098E219F21A023B1230097A105DD
:101C6000B10521F041E050E060E070E04A295B29D5
:101C70006C297D294D835E836F8378878EE190E0A8
:101C80008E1B9F0B9C838B8312C0309781F00E2E8E
:101C900004C0EE0CFF1C001F111F0A94D2F7ED8246
:101CA000FE820F831887CE1ADF0ADC82CB821A826B
:101CB000CE0101960E94AF0E2896EAE00C947910AE
:101CC000EF92FF920F931F937B018C0180E0E81647
:101CD00080E0F80681E0080780E0180788F48FEFBD
:101CE000E816F1040105110531F028F088E090E0D4
:101CF000A0E0B0E017C080E090E0A0E0B0E012C04B
:101D000080E0E81680E0F80680E0080781E0180728
:101D100028F088E190E0A0E0B0E004C080E190E02D
:101D2000A0E0B0E020E230E040E050E0281B390BBA
:101D30004A0B5B0B04C016950795F794E7948A95B8
:101D4000D2F7F701E85FFD4F8081281B3109410977
:101D50005109C9011F910F91FF90EF900895DF92F3
:101D6000EF92FF920F931F93FC01E480F5800681B0
:101D70001781D1808081823048F480E090E0A0E13A
:101D8000B0E0E82AF92A0A2B1B2BA5C0843009F4FD
:101D90009FC0823021F4EE24FF24870105C0E114A6
:101DA000F1040105110519F4E0E0F0E096C062814C
:101DB00073819FEF623879070CF05BC022E83FEF38
:101DC000261B370B2A3131052CF020E030E040E0B3
:101DD00050E02AC0B801A701022E04C0769567958D
:101DE000579547950A94D2F781E090E0A0E0B0E0E3
:101DF00004C0880F991FAA1FBB1F2A95D2F701970D
:101E0000A109B1098E219F21A023B1230097A1052B
:101E1000B10521F081E090E0A0E0B0E09A01AB01D3
:101E2000282B392B4A2B5B2BDA01C9018F77907055
:101E3000A070B07080349105A105B10539F427FF79
:101E400009C0205C3F4F4F4F5F4F04C0215C3F4FA4
:101E50004F4F5F4FE0E0F0E02030A0E03A07A0E015
:101E60004A07A0E45A0710F0E1E0F0E079018A01A6
:101E700027C06038710564F5FB01E158FF4FD801B8
:101E8000C7018F779070A070B07080349105A10564
:101E9000B10539F4E7FE0DC080E490E0A0E0B0E0C9
:101EA00004C08FE390E0A0E0B0E0E80EF91E0A1F46
:101EB0001B1F17FF05C016950795F794E7943196F9
:101EC00087E016950795F794E7948A95D1F705C0B2
:101ED000EE24FF248701EFEFF0E06E2F6795662771
:101EE0006795902F9F77D794DD24D7948E2F869572
:101EF000492F462B582F5D29B701CA011F910F9119
:101F0000FF90EF90DF900895FC01DB01408151814B
:101F10002281622F6F7770E0221F2227221F938178
:101F2000892F880F822B282F30E0991F9927991F1E
:101F300011969C93119721153105A9F5411551056D
:101F40006105710511F482E037C082E89FEF1396B6
:101F50009C938E9312979A01AB0167E0220F331F77
:101F6000441F551F6A95D1F783E08C930DC0220F53
:101F7000331F441F551F12968D919C911397019703
:101F800013969C938E931297203080E0380780E060
:101F9000480780E4580758F314962D933D934D93CA
:101FA0005C93179708952F3F310579F4411551053A
:101FB0006105710519F484E08C93089564FF03C0F2
:101FC00081E08C9312C01C9210C02F5730401396A2
:101FD0003C932E93129783E08C9387E0440F551F18
:101FE000661F771F8A95D1F7706414964D935D93A1
:101FF0006D937C93179708951F93DC01FB019C91CF
:10200000923008F447C08081823008F443C0943095
:1020100051F411961C91843099F58181682F70E0FC
:10202000611B71093FC0843021F0923031F482305D
:10203000B9F18181882389F12DC011961C911197E6
:102040008230F1F081811817D9F412962D913C91CC
:102050001397828193818217930794F02817390789
:10206000BCF014968D919D910D90BC91A02D248172
:10207000358146815781281739074A075B0718F4CD
:10208000112341F00AC082179307A407B50740F453
:10209000112319F061E070E005C06FEF7FEF02C01F
:1020A00060E070E0CB011F9108952F923F924F9214
:1020B0005F926F927F928F929F92AF92BF92CF92D8
:1020C000DF92EF92FF920F931F93CF93DF93CDB7E1
:1020D000DEB7CA1BDB0B0FB6F894DEBF0FBECDBF59
:1020E00019942A88398848885F846E847D848C841A
:1020F0009B84AA84B984C884DF80EE80FD800C8133
:102100001B81AA81B981CE0FD11D0FB6F894DEBF15
:0C2110000FBECDBFED010895F894FFCF85
:10211C0000000000000000000001020203030303A2
:10212C00040404040404040405050505050505055B
:10213C00050505050505050506060606060606063B
:10214C000606060606060606060606060606060623
:10215C00060606060606060607070707070707070B
:10216C0007070707070707070707070707070707F3
:10217C0007070707070707070707070707070707E3
:10218C0007070707070707070707070707070707D3
:10219C0007070707070707070808080808080808BB
:1021AC0008080808080808080808080808080808A3
:1021BC000808080808080808080808080808080893
:1021CC000808080808080808080808080808080883
:1021DC000808080808080808080808080808080873
:1021EC000808080808080808080808080808080863
:1021FC000808080808080808080808080808080853
:10220C000808080808080808080808080808080842
:08221C0008080808080808087A
:00000001FF
