:100000000C9472000C9493000C9493000C94930045
:100010000C9493000C9493000C9493000C94930014
:100020000C9493000C9493000C9493000C94930004
:100030000C9493000C94EB030C9428040C94AE03E2
:100040000C9493000C945C020C9493000C94930019
:100050000C9493000C94B5040C94DC040C9465048B
:100060000C9493000C9493000C9493000C949300C4
:100070000C9493000C9493000C9493000C949300B4
:100080000C9493000C9493000C9493000C949300A4
:100090000C9493000C9493000C9493000C94930094
:1000A0000C9493000C9487020C9480030C9493009E
:1000B0000C9493000C9493000C9493000C94930074
:1000C0000C9493000C9493000C9493000C94930064
:1000D0000C9493000C9493000C9493000C94930054
:1000E0000C94930011241FBECFEFD1E2DEBFCDBF31
:1000F00000E00CBF13E0A0E0B2E0E6E0F4E100E0D5
:100100000BBF02C007900D92A830B107D9F713E0DA
:10011000A8E0B3E001C01D92A032B107E1F70E9450
:1001200095000C94010A0C940000DF93CF93CDB797
:10013000DEB70E94D7000E94030506C08AEA90E05D
:100140006AEA70E00E945505E0E2F0E08081882FC5
:1001500090E081709070009781F4E0E2F0E080819F
:10016000882F90E082709070009741F306C08AEA71
:1001700090E060E070E00E945505E0E2F0E08081F0
:10018000882F90E081709070882389F706C080E006
:1001900090E06AEA70E00E945505E0E2F0E08081BC
:1001A000882F90E082709070009789F7CDCFDF9311
:1001B000CF93CDB7DEB7ADE2B0E0EDE2F0E0808105
:1001C00088608C93ADE2B0E0EDE2F0E08081806188
:1001D0008C93A1E0B1E0E1E0F1E0808180618C935B
:1001E000ADE2B0E0EDE2F0E0808182608C93ADE2C0
:1001F000B0E0EDE2F0E0808181608C93A1E2B0E0BC
:10020000E1E2F0E080818E7F8C93A1E2B0E0E1E258
:10021000F0E080818D7F8C93AAE0B1E0EAE0F1E02C
:1002200080818E7F8C93A1E2B0E0E1E2F0E08081FA
:1002300088608C93A7E2B0E0E7E2F0E0808180681C
:100240008C93A7E2B0E0E7E2F0E0808180648C93D9
:10025000A7E2B0E0E7E2F0E0808180628C93CF918A
:10026000DF910895DF93CF930F920F92CDB7DEB752
:10027000E4E8F0E01182108210921503109214034A
:10028000E0E2F0E08081882F90E08170907000972C
:1002900079F4E0E2F0E08081882F90E08270907045
:1002A000009731F48AEA90E06AEA70E00E9455050E
:1002B000E0E2F0E08081882F90E0817090708823E8
:1002C00031F08AEA90E060E070E00E945505E0E2DB
:1002D000F0E08081882F90E082709070009731F07C
:1002E0008AEA90E060E070E00E9455050F900F9060
:1002F000CF91DF910895DF93CF930F920F92CDB7F7
:10030000DEB7E4E8F0E0118210821092150310923B
:10031000140345C083E290E06AEA70E00E9455054C
:10032000E0E2F0E08081882F90E081709070882377
:10033000D1F08091140390911503AA2797FDA09501
:10034000BA2FBC01CD010E94FE06DC01CB01BC012D
:10035000CD012DEC3CEC44E351E40E94CE0618168E
:1003600014F00E9451028091140390911503AA2762
:1003700097FDA095BA2FBC01CD010E94FE06DC01BD
:10038000CB01BC01CD012DEC3CEC44E351E40E94D7
:100390009E06882324F081E090E09A838983E0E23E
:1003A000F0E08081882F90E081709070982F81E03C
:1003B0008927882331F489819A818130910509F454
:1003C000A9CF0F900F90CF91DF910895DF93CF9336
:1003D0000F920F92CDB7DEB7E4E8F0E01182108201
:1003E000109215031092140345C08AEA90E063E26C
:1003F00070E00E945505E0E2F0E08081882F90E0F7
:10040000817090708823D1F080911403909115032E
:10041000AA2797FDA095BA2FBC01CD010E94FE0628
:10042000DC01CB01BC01CD012DEC3CEC44E351E4FB
:100430000E94CE06181614F00E94510280911403F7
:1004400090911503AA2797FDA095BA2FBC01CD0165
:100450000E94FE06DC01CB01BC01CD012DEC3CEC81
:1004600044E351E40E949E06882324F081E090E05A
:100470009A838983E0E2F0E08081882F90E08170A8
:100480009070982F81E08927882331F489819A819F
:100490008130910509F4A9CF0F900F90CF91DF9192
:1004A0000895DF93CF93CDB7DEB780E090E060E0B2
:1004B00070E00E945505F9CF1F920F920FB60F9270
:1004C00000905B000F9211248F939F93EF93FF9303
:1004D000DF93CF93CDB7DEB7E4E8F0E0118210826E
:1004E00080911403909115030196909315038093C6
:1004F0001403CF91DF91FF91EF919F918F910F9016
:1005000000925B000F900FBE0F901F9018951F92E6
:100510000F920FB60F9200905B000F921124EF9292
:10052000FF920F931F932F933F934F935F936F937C
:100530007F938F939F93AF93BF93EF93FF93DF933B
:10054000CF93CDB7DEB7E1EAF0E08081882F90E06D
:1005500080749070009781F0A1EAB0E0E1EAF0E0E9
:1005600080818F7B8C93E4EAF0E08081918190938D
:100570001F0380931E03AAC0A1EAB0E0E1EAF0E005
:1005800080818C93E4EAF0E080819181909319035B
:100590008093180380911E0390911F039C0140E0FB
:1005A00050E08091180390911903CC01A0E0B0E0D5
:1005B00079018A01E81AF90A0A0B1B0BD801C70155
:1005C00080931A0390931B03A0931C03B0931D0305
:1005D00083E090E0909317038093160380911A03B1
:1005E00090911B03A0911C03B0911D03B695A79594
:1005F00097958795BC01CD010E945C07DC01CB017A
:10060000BC01CD0128E23EE74CE85CE30E94A40572
:10061000DC01CB018093080390930903A0930A03A4
:10062000B0930B0382E090E090931703809316033E
:1006300080911A0390911B03A0911C03B0911D039C
:10064000B695A79597958795BC01CD010E945C074B
:10065000DC01CB01BC01CD0128E23EE74CE85CE3C4
:100660000E94A405DC01CB0180930C0390930D0341
:10067000A0930E03B0930F0381E090E090931703D3
:100680008093160380911A0390911B03A0911C0381
:10069000B0911D03B695A79597958795BC01CD019F
:1006A0000E945C07DC01CB01BC01CD0128E23EE7E2
:1006B0004CE85CE30E94A405DC01CB0180931003AD
:1006C00090931103A0931203B0931303CF91DF9182
:1006D000FF91EF91BF91AF919F918F917F916F911A
:1006E0005F914F913F912F911F910F91FF90EF904C
:1006F0000F9000925B000F900FBE0F901F90189507
:100700001F920F920FB60F9200905B000F92112470
:100710008F93AF93BF93EF93FF93DF93CF93CDB7B7
:10072000DEB7E8E2F0E01082E2E7F0E080E280830A
:10073000A1EAB0E0E1EAF0E0808180648C93CF919F
:10074000DF91FF91EF91BF91AF918F910F90009248
:100750005B000F900FBE0F901F9018951F920F9285
:100760000FB60F9200905B000F9211248F939F930E
:10077000AF93BF93EF93FF93DF93CF93CDB7DEB7E4
:10078000E2E7F0E082E08083A2E2B0E0E2E2F0E0C3
:10079000808180628C93E4EAF0E011821082E8EAC2
:1007A000F0E080E29EE49183808383E090E0909388
:1007B000170380931603CF91DF91FF91EF91BF91C3
:1007C000AF919F918F910F9000925B000F900FBEA1
:1007D0000F901F9018951F920F920FB60F920090D6
:1007E0005B000F9211248F939F93AF93BF93EF936E
:1007F000FF93DF93CF93CDB7DEB7E2E7F0E082E07F
:100800008083A2E2B0E0E2E2F0E0808180648C9339
:10081000E4EAF0E011821082E8EAF0E080E29EE48F
:100820009183808382E090E0909317038093160376
:10083000CF91DF91FF91EF91BF91AF919F918F91F8
:100840000F9000925B000F900FBE0F901F901895B5
:100850001F920F920FB60F9200905B000F9211241F
:100860008F939F93AF93BF93EF93FF93DF93CF93B8
:10087000CDB7DEB7E2E7F0E082E08083A2E2B0E04D
:10088000E2E2F0E0808180628C93E4EAF0E01182A1
:100890001082E8EAF0E080E29EE49183808381E0C8
:1008A00090E09093170380931603CF91DF91FF910F
:1008B000EF91BF91AF919F918F910F9000925B004C
:1008C0000F900FBE0F901F9018951F920F920FB6AA
:1008D0000F9200905B000F9211248F93AF93BF9300
:1008E000EF93FF93DF93CF93CDB7DEB7E7E4F0E06C
:1008F0008081882399F4E8E4F0E08081882371F412
:10090000AEE2B0E0EEE2F0E080818F7E8C93AEE26A
:10091000B0E0EEE2F0E08081877F8C93E7E4F0E0E6
:100920008081882339F0AEE2B0E0EEE2F0E0808131
:1009300080618C93E8E4F0E08081882339F0AEE2B6
:10094000B0E0EEE2F0E0808188608C93CF91DF919F
:10095000FF91EF91BF91AF918F910F9000925B004B
:100960000F900FBE0F901F9018951F920F920FB609
:100970000F9200905B000F9211248F93AF93BF935F
:10098000EF93FF93DF93CF93CDB7DEB7AEE2B0E046
:10099000EEE2F0E080818F7E8C93CF91DF91FF912A
:1009A000EF91BF91AF918F910F9000925B000F90EC
:1009B0000FBE0F901F9018951F920F920FB60F92B7
:1009C00000905B000F9211248F93AF93BF93EF932E
:1009D000FF93DF93CF93CDB7DEB7AEE2B0E0EEE2A8
:1009E000F0E08081877F8C93CF91DF91FF91EF9131
:1009F000BF91AF918F910F9000925B000F900FBE4F
:100A00000F901F901895DF93CF93CDB7DEB7AEE26E
:100A1000B0E0EEE2F0E080818F7E8C93AEE2B0E059
:100A2000EEE2F0E08081877F8C93E4E4F0E01082D6
:100A3000E5E4F0E083E08083EEE6F0E087E08083A9
:100A4000E7E4F0E01082E8E4F0E01082E0E8F0E0B3
:100A50001082E1E8F0E084E08083EFE6F0E082E0FD
:100A60008083E8E8F0E08AE698E191838083E0EB18
:100A7000F0E01082E1EBF0E085E08083E3EBF0E072
:100A800085E58083E4EBF0E08AEA8083E0E7F0E04C
:100A900087E08083E0EAF0E01082E1EAF0E082E0C3
:100AA00080837894CF91DF910895DF93CF9300D026
:100AB0000F92CDB7DEB79A8389837C836B8389815C
:100AC0009A8199235CF4A5E0B1E0E5E0F1E0808152
:100AD00081608C93E7E4F0E0898180838B819C8145
:100AE00099235CF4A5E0B1E0E5E0F1E0808182606B
:100AF0008C93E8E4F0E08B81808389819A811816D9
:100B000019065CF4A5E0B1E0E5E0F1E080818E7FBC
:100B10008C93E7E4F0E0898180838B819C811816B7
:100B200019065CF4A5E0B1E0E5E0F1E080818D7F9D
:100B30008C93E8E4F0E08B8180830F900F900F900E
:100B40000F90CF91DF910895A0E2B0E0EAEAF5E0DE
:100B50000C94CA0969837A838B839C832D833E839B
:100B60004F835887CE010196BE01675F7F4F0E9479
:100B7000F908CE010596BE016F5E7F4F0E94F9080D
:100B80009985923088F089898230C8F0943019F4C0
:100B9000823051F404C0843029F4923081F480E032
:100BA00092E0C6C0923049F420E09A858A89981371
:100BB00021E02A87CE010996BBC0823049F420E0AB
:100BC0009A858A89981321E02A8BCE014196B0C07C
:100BD0002D843E844F8458886D887E888F88988CB9
:100BE000EE24FF248701AA24BB24650140E050E0E5
:100BF00060E070E0E0E0F0E0C10181709070892B6E
:100C0000E9F0E60CF71C081D191D9A01AB012A0D2D
:100C10003B1D4C1D5D1D80E090E0A0E0B0E0E614BF
:100C2000F7040805190520F481E090E0A0E0B0E0A9
:100C3000BA01A901480F591F6A1F7B1FAA0CBB1CD0
:100C4000CC1CDD1C97FE08C081E090E0A0E0B0E085
:100C5000A82AB92ACA2ADB2A3196E032F10549F0DE
:100C6000660C771C881C991C5694479437942794DB
:100C7000C3CFFA85EA892B893C898B859C85280F0F
:100C8000391F2E5F3F4F17C0CA0181709070892BAA
:100C900061F016950795F794E79480E090E0A0E066
:100CA000B0E8E82AF92A0A2B1B2B76956795579509
:100CB00047952F5F3F4F77FDE7CF0CC0440F551F7F
:100CC000661F771F17FD4160EE0CFF1C001F111FF0
:100CD00021503040403090E0590790E0690790E49F
:100CE000790760F32B8F3C8FDB01CA018F779070FF
:100CF000A070B07080349105A105B10561F447FD85
:100D00000AC0E114F1040105110529F0405C5F4FB0
:100D10006F4F7F4F40781A8EFE1711F081E08A8F57
:100D20004D8F5E8F6F8F78A383E0898FCE014996B8
:100D30000E942408A096E2E10C94E609A8E1B0E044
:100D4000E4EAF6E00C94D60969837A838B839C836A
:100D50002D833E834F83588789E0E82EF12CEC0EDB
:100D6000FD1ECE010196B7010E94F9088E010F5EAB
:100D70001F4FCE010596B8010E94F908898582307F
:100D800040F08989823028F0C701B8010E947109BA
:100D900001C08FEF6896E6E00C94F209A8E1B0E09C
:100DA000E4EDF6E00C94D60969837A838B839C8307
:100DB0002D833E834F83588789E0E82EF12CEC0E7B
:100DC000FD1ECE010196B7010E94F9088E010F5E4B
:100DD0001F4FCE010596B8010E94F908898582301F
:100DE00040F08989823028F0C701B8010E9471095A
:100DF00001C081E06896E6E00C94F209A8E0B0E05A
:100E0000E4E0F7E00C94D3099B01AC0183E0898313
:100E1000DA01C9018827B7FD83959927AA27BB273F
:100E2000B82E211531054105510519F482E0898359
:100E30003AC08823A9F0203080E0380780E04807D6
:100E400080E8580729F460E070E080E09FEC30C053
:100E5000EE24FF248701E21AF30A040B150B02C0EB
:100E600079018A018EE1C82ED12CDC82CB82ED8201
:100E7000FE820F831887C801B7010E94D50701972A
:100E80001816190684F4082E04C0EE0CFF1C001F6F
:100E9000111F0A94D2F7ED82FE820F831887C81AB9
:100EA000D90ADC82CB82BA82CE0101960E94240844
:100EB0002896E9E00C94EF09A8E0B0E0E2E6F7E05C
:100EC0000C94D2097B018C01611571058105910596
:100ED00019F482E0898360C083E089838EE1C82EA3
:100EE000D12CDC82CB82ED82FE820F831887C80171
:100EF000B7010E94D507FC013197F7FF3BC02227BD
:100F000033272E1B3F0B57016801022E04C0D694D5
:100F1000C794B794A7940A94D2F740E050E060E0F9
:100F200070E081E090E0A0E0B0E004C0880F991F7D
:100F3000AA1FBB1F2A95D2F70197A109B1098E21DB
:100F40009F21A023B1230097A105B10521F041E025
:100F500050E060E070E04A295B296C297D294D83CF
:100F60005E836F8378878EE190E08E1B9F0B9C835E
:100F70008B8312C0309781F00E2E04C0EE0CFF1C44
:100F8000001F111F0A94D2F7ED82FE820F8318878B
:100F9000CE1ADF0ADC82CB821A82CE0101960E9431
:100FA00024082896EAE00C94EE09EF92FF920F9342
:100FB0001F937B018C0180E0E81680E0F80681E059
:100FC000080780E0180788F48FEFE816F1040105A0
:100FD000110531F028F088E090E0A0E0B0E017C003
:100FE00080E090E0A0E0B0E012C080E0E81680E091
:100FF000F80680E0080781E0180728F088E190E013
:10100000A0E0B0E004C080E190E0A0E0B0E020E229
:1010100030E040E050E0281B390B4A0B5B0B04C06A
:1010200016950795F794E7948A95D2F7F701E85F4C
:10103000FD4F8081281B310941095109C9011F91C8
:101040000F91FF90EF900895DF92EF92FF920F9330
:101050001F93FC01E480F58006811781D180808197
:10106000823048F480E090E0A0E1B0E0E82AF92A7C
:101070000A2B1B2BA5C0843009F49FC0823021F4B9
:10108000EE24FF24870105C0E114F10401051105D8
:1010900019F4E0E0F0E096C0628173819FEF62385E
:1010A00079070CF05BC022E83FEF261B370B2A3193
:1010B00031052CF020E030E040E050E02AC0B801DB
:1010C000A701022E04C076956795579547950A9417
:1010D000D2F781E090E0A0E0B0E004C0880F991F53
:1010E000AA1FBB1F2A95D2F70197A109B1098E212A
:1010F0009F21A023B1230097A105B10521F081E034
:1011000090E0A0E0B0E09A01AB01282B392B4A2BEC
:101110005B2BDA01C9018F779070A070B0708034BA
:101120009105A105B10539F427FF09C0205C3F4FA7
:101130004F4F5F4F04C0215C3F4F4F4F5F4FE0E088
:10114000F0E02030A0E03A07A0E04A07A0E45A0708
:1011500010F0E1E0F0E079018A0127C06038710504
:1011600064F5FB01E158FF4FD801C7018F779070FC
:10117000A070B07080349105A105B10539F4E7FE87
:101180000DC080E490E0A0E0B0E004C08FE390E008
:10119000A0E0B0E0E80EF91E0A1F1B1F17FF05C0F4
:1011A00016950795F794E794319687E0169507957D
:1011B000F794E7948A95D1F705C0EE24FF248701C0
:1011C000EFEFF0E06E2F679566276795902F9F777A
:1011D000D794DD24D7948E2F8695492F462B582FF0
:1011E0005D29B701CA011F910F91FF90EF90DF9029
:1011F0000895FC01DB01408151812281622F6F77CC
:1012000070E0221F2227221F9381892F880F822BB3
:10121000282F30E0991F9927991F11969C931197B9
:1012200021153105A9F5411551056105710511F427
:1012300082E037C082E89FEF13969C938E931297BB
:101240009A01AB0167E0220F331F441F551F6A95B7
:10125000D1F783E08C930DC0220F331F441F551F1D
:1012600012968D919C911397019713969C938E9350
:101270001297203080E0380780E0480780E4580764
:1012800058F314962D933D934D935C9317970895BF
:101290002F3F310579F4411551056105710519F4A8
:1012A00084E08C93089564FF03C081E08C9312C0A6
:1012B0001C9210C02F57304013963C932E931297D8
:1012C00083E08C9387E0440F551F661F771F8A9534
:1012D000D1F7706414964D935D936D937C9317973B
:1012E00008951F93DC01FB019C91923008F447C0E4
:1012F0008081823008F443C0943051F411961C91DF
:10130000843099F58181682F70E0611B71093FC0BD
:10131000843021F0923031F48230B9F18181882318
:1013200089F12DC011961C9111978230F1F08181C5
:101330001817D9F412962D913C91139782819381BD
:101340008217930794F028173907BCF014968D91F3
:101350009D910D90BC91A02D2481358146815781AE
:10136000281739074A075B0718F4112341F00AC010
:1013700082179307A407B50740F4112319F061E021
:1013800070E005C06FEF7FEF02C060E070E0CB015E
:101390001F9108952F923F924F925F926F927F928A
:1013A0008F929F92AF92BF92CF92DF92EF92FF9275
:1013B0000F931F93CF93DF93CDB7DEB7CA1BDB0B21
:1013C0000FB6F894DEBF0FBECDBF19942A883988B6
:1013D00048885F846E847D848C849B84AA84B984CD
:1013E000C884DF80EE80FD800C811B81AA81B981D9
:1013F000CE0FD11D0FB6F894DEBF0FBECDBFED01ED
:061400000895F894FFCFEF
:1014060000000000000000000001020203030303C5
:10141600040404040404040405050505050505057E
:10142600050505050505050506060606060606065E
:101436000606060606060606060606060606060646
:10144600060606060606060607070707070707072E
:101456000707070707070707070707070707070716
:101466000707070707070707070707070707070706
:1014760007070707070707070707070707070707F6
:1014860007070707070707070808080808080808DE
:1014960008080808080808080808080808080808C6
:1014A60008080808080808080808080808080808B6
:1014B60008080808080808080808080808080808A6
:1014C6000808080808080808080808080808080896
:1014D6000808080808080808080808080808080886
:1014E6000808080808080808080808080808080876
:1014F6000808080808080808080808080808080866
:0815060008080808080808089D
:00000001FF
