:100000000C9472000C948B000C948B000C948B005D
:100010000C948B000C948B000C948B000C948B0034
:100020000C948B000C948B000C948B000C948B0024
:100030000C948B000C948B000C948B000C948B0014
:100040000C948B000C948B000C948B000C948B0004
:100050000C948B000C9458020C947F020C94F801C1
:100060000C948B000C948B000C948B000C948B00E4
:100070000C948B000C948B000C948B000C948B00D4
:100080000C948B000C948B000C948B000C948B00C4
:100090000C948B000C948B000C948B000C948B00B4
:1000A0000C948B000C948B000C948B000C948B00A4
:1000B0000C948B000C948B000C948B000C948B0094
:1000C0000C948B000C948B000C948B000C948B0084
:1000D0000C948B000C948B000C948B000C948B0074
:1000E0000C948B0011241FBECFEFD1E2DEBFCDBF39
:1000F00000E00CBF12E0A0E0B2E0EAE1F1E100E0D4
:100100000BBF02C007900D92A830B107D9F70E942B
:100110008D000C948B080C940000DF93CF93CDB727
:10012000DEB70E9498000E94A6020E94BB00FDCF8D
:10013000DF93CF93CDB7DEB7ADE2B0E0EDE2F0E014
:10014000808180628C93ADE2B0E0EDE2F0E08081EE
:1001500080618C93A1E2B0E0E1E2F0E08081816017
:100160008C93A1E2B0E0E1E2F0E0808182608C93C8
:10017000CF91DF910895DF93CF93CDB7DEB7A097EE
:100180000FB6F894DEBF0FBECDBF8AE790E06AE7F6
:1001900070E00E94CD02E0E2F0E08081882F90E0E4
:1001A00081709070882309F48CC088E790E098A350
:1001B0008F8F7DC08F8D98A164E670E00E94CD0284
:1001C00080E090E0A0EAB1E4898F9A8FAB8FBC8F7A
:1001D000698D7A8D8B8D9C8D20E030E04AE755E467
:1001E0000E94D004DC01CB018D8B9E8BAF8BB88F2E
:1001F0006D897E898F89988D20E030E040E85FE34B
:100200000E942A0688232CF481E090E09C8B8B8B43
:100210003FC06D897E898F89988D20E03FEF4FE741
:1002200057E40E94CA0518164CF5698D7A8D8B8D9E
:100230009C8D20E030E040E251E40E94D004DC01DB
:10024000CB01BC01CD010E94FA02DC01CB019C8BE9
:100250008B8B0FC080E991E09A8B898B89899A8971
:100260000197F1F79A8B898B8B899C8901979C8BDD
:100270008B8B8B899C89009769F714C06D897E8967
:100280008F89988D0E94FA02DC01CB019C8B8B8BAD
:100290008B899C89988B8F878F8598890197F1F737
:1002A000988B8F878F8D98A1019698A38F8FE0E20E
:1002B000F0E08081882F90E081709070882309F0B1
:1002C00079CFE0E2F0E08081882F90E0827090703A
:1002D000009709F45ACF88E790E09E8F8D8F7DC0FC
:1002E0008D8D9E8D64E670E00E94CD0280E090E0EE
:1002F000A0EAB1E48B879C87AD87BE876B857C8540
:100300008D859E8520E030E04AE755E40E94D004C8
:10031000DC01CB018F839887A987BA876F817885A5
:1003200089859A8520E030E040E85FE30E942A0654
:1003300088232CF481E090E09E838D833FC06F8101
:10034000788589859A8520E03FEF4FE757E40E9442
:10035000CA0518164CF56B857C858D859E8520E039
:1003600030E040E251E40E94D004DC01CB01BC014A
:10037000CD010E94FA02DC01CB019E838D830FC068
:1003800080E991E09C838B838B819C810197F1F7BD
:100390009C838B838D819E8101979E838D838D812C
:1003A0009E81009769F714C06F81788589859A8549
:1003B0000E94FA02DC01CB019E838D838D819E8198
:1003C0009A83898389819A810197F1F79A83898336
:1003D0008D8D9E8D01969E8F8D8FE0E2F0E0808165
:1003E000882F90E082709070009709F079CFCDCE81
:1003F0001F920F920FB60F9200905B000F92112484
:100400008F93AF93BF93EF93FF93DF93CF93CDB7CA
:10041000DEB7E7E4F0E080818823A1F4E8E4F0E0CF
:100420008081882379F4AEE2B0E0EEE2F0E08081F2
:100430008F7E8C93AEE2B0E0EEE2F0E080818F7DC3
:100440008C9327C0E7E4F0E08081882379F0AEE266
:10045000B0E0EEE2F0E080818F7D8C93AEE2B0E020
:10046000EEE2F0E0808180618C9313C0E8E4F0E07C
:100470008081882371F0AEE2B0E0EEE2F0E08081AE
:100480008F7E8C93AEE2B0E0EEE2F0E0808180629D
:100490008C93CF91DF91FF91EF91BF91AF918F91AD
:1004A0000F9000925B000F900FBE0F901F90189559
:1004B0001F920F920FB60F9200905B000F921124C3
:1004C0008F93AF93BF93EF93FF93DF93CF93CDB70A
:1004D000DEB7AEE2B0E0EEE2F0E080818F7E8C939A
:1004E000CF91DF91FF91EF91BF91AF918F910F90DD
:1004F00000925B000F900FBE0F901F9018951F92F7
:100500000F920FB60F9200905B000F9211248F9301
:10051000AF93BF93EF93FF93DF93CF93CDB7DEB746
:10052000AEE2B0E0EEE2F0E080818F7D8C93CF917F
:10053000DF91FF91EF91BF91AF918F910F9000925A
:100540005B000F900FBE0F901F901895DF93CF9315
:10055000CDB7DEB7AEE2B0E0EEE2F0E080818F7EB4
:100560008C93AEE2B0E0EEE2F0E080818F7D8C9380
:10057000E4E4F0E01082E5E4F0E083E08083E7E487
:10058000F0E01082E8E4F0E01082EEE6F0E087E0D0
:1005900080837894CF91DF910895DF93CF9300D03B
:1005A0000F92CDB7DEB79A8389837C836B83898171
:1005B0009A818F3F910509F024F48FEF90E09A83A0
:1005C00089838B819C818F3F910509F024F48FEF03
:1005D00090E09C838B83E7E4F0E089818083E8E40A
:1005E000F0E08B8180830F900F900F900F90CF9150
:1005F000DF910895EF92FF920F931F937B018C017F
:1006000020E030E040E05FE40E94FA0588238CF0AF
:10061000C801B70120E030E040E05FE40E947204CE
:100620000E945A069B01AC01205030404040504887
:1006300006C0C801B7010E945A069B01AC01B9016E
:10064000CA011F910F91FF90EF900895A0E0B0E0D4
:10065000ECE2F3E00C945408DC012B01FA019C91CC
:10066000923008F439C1EB018881823008F433C13B
:10067000943069F4843009F02FC111969C91119740
:100680008981981709F428C1A0E0B2E025C184301F
:1006900009F421C18230A9F4923009F01DC19A01F8
:1006A000AD0188E0EA010990AE01E90109929E01DD
:1006B0008150C1F7E201898111969C918923818340
:1006C00008C1923009F407C112962D903C901397FF
:1006D000EB018A819B811496AD90BD90CD90DC900A
:1006E0001797EC80FD800E811F819101281B390B2B
:1006F000B90137FF04C066277727621B730B60328E
:1007000071050CF061C0121613066CF53701480133
:10071000062E04C096948794779467940A94D2F72F
:1007200021E030E040E050E004C0220F331F441FBE
:10073000551F6A95D2F721503040404050402E213D
:100740003F2140235123211531054105510521F059
:1007500021E030E040E050E079018A01E628F72806
:10076000082919293CC0232BD1F1260E371E35014B
:100770004601062E04C096948794779467940A9451
:10078000D2F721E030E040E050E004C0220F331FF8
:10079000441F551F6A95D2F72150304040405040C9
:1007A0002A213B214C215D212115310541055105AF
:1007B00021F021E030E040E050E059016A01A62834
:1007C000B728C828D9280BC0821593052CF01C0126
:1007D000AA24BB24650103C0EE24FF2487011196DF
:1007E0009C91D20111968C91981709F445C09923D8
:1007F00039F0A80197012A193B094C095D0906C087
:10080000A60195012E193F09400B510B57FD08C059
:1008100011823382228224833583468357831DC00D
:1008200081E081833382228288279927DC01821B21
:10083000930BA40BB50B84839583A683B7830DC05C
:10084000220F331F441F551F24833583468357834C
:1008500082819381019793838283248135814681AC
:100860005781DA01C9010197A109B1098F5F9F4F33
:10087000AF4FBF4328F30BC0918333822282EA0C2F
:10088000FB1C0C1D1D1DE482F5820683178383E08B
:100890008083248135814681578157FF1AC0C90161
:1008A000AA2797FDA095BA2F81709070A070B070A4
:1008B0005695479537952795822B932BA42BB52BCF
:1008C00084839583A683B7838281938101969383E2
:1008D0008283DF0101C0D201CD01CDB7DEB7E2E1F5
:1008E0000C947008A0E2B0E0E8E7F4E00C94600833
:1008F00069837A838B839C832D833E834F835887C0
:10090000E9E0EE2EF12CEC0EFD1ECE010196B701B2
:100910000E9483078E010F5E1F4FCE010596B8011E
:100920000E9483078A8991E089278A8BC701B801D1
:10093000AE01475E5F4F0E9426030E94AE06A0965E
:10094000E6E00C947C08A0E2B0E0E9EAF4E00C9464
:10095000600869837A838B839C832D833E834F83D6
:100960005887F9E0EF2EF12CEC0EFD1ECE0101961A
:10097000B7010E9483078E010F5E1F4FCE010596BF
:10098000B8010E948307C701B801AE01475E5F4FFF
:100990000E9426030E94AE06A096E6E00C947C0816
:1009A000A0E2B0E0E6EDF4E00C94540869837A83A9
:1009B0008B839C832D833E834F835887CE01019682
:1009C000BE01675F7F4F0E948307CE010596BE017F
:1009D0006F5E7F4F0E9483079985923088F08989E6
:1009E0008230C8F0943019F4823051F404C084305D
:1009F00029F4923081F480E092E0C6C0923049F44C
:100A000020E09A858A89981321E02A87CE010996E9
:100A1000BBC0823049F420E09A858A89981321E08E
:100A20002A8BCE014196B0C02D843E844F845888D5
:100A30006D887E888F88988CEE24FF248701AA24F5
:100A4000BB24650140E050E060E070E0E0E0F0E0F1
:100A5000C10181709070892BE9F0E60CF71C081D2C
:100A6000191D9A01AB012A0D3B1D4C1D5D1D80E037
:100A700090E0A0E0B0E0E614F7040805190520F4C2
:100A800081E090E0A0E0B0E0BA01A901480F591F51
:100A90006A1F7B1FAA0CBB1CCC1CDD1C97FE08C068
:100AA00081E090E0A0E0B0E0A82AB92ACA2ADB2AB7
:100AB0003196E032F10549F0660C771C881C991CD0
:100AC0005694479437942794C3CFFA85EA892B89A3
:100AD0003C898B859C85280F391F2E5F3F4F17C09F
:100AE000CA0181709070892B61F016950795F79473
:100AF000E79480E090E0A0E0B0E8E82AF92A0A2B29
:100B00001B2B76956795579547952F5F3F4F77FD40
:100B1000E7CF0CC0440F551F661F771F17FD4160BC
:100B2000EE0CFF1C001F111F21503040403090E0A0
:100B3000590790E0690790E4790760F32B8F3C8FA9
:100B4000DB01CA018F779070A070B070803491057E
:100B5000A105B10561F447FD0AC0E114F1040105E6
:100B6000110529F0405C5F4F6F4F7F4F40781A8E20
:100B7000FE1711F081E08A8F4D8F5E8F6F8F78A303
:100B800083E0898FCE0149960E94AE06A096E2E1ED
:100B90000C947008A8E1B0E0E0EDF5E00C9460087A
:100BA00069837A838B839C832D833E834F8358870D
:100BB00089E0E82EF12CEC0EFD1ECE010196B70166
:100BC0000E9483078E010F5E1F4FCE010596B8016C
:100BD0000E9483078985823040F08989823028F01D
:100BE000C701B8010E94FB0701C08FEF6896E6E0DD
:100BF0000C947C08A8E1B0E0E0E0F6E00C9460081A
:100C000069837A838B839C832D833E834F835887AC
:100C100089E0E82EF12CEC0EFD1ECE010196B70105
:100C20000E9483078E010F5E1F4FCE010596B8010B
:100C30000E9483078985823040F08989823028F0BC
:100C4000C701B8010E94FB0701C08FEF6896E6E07C
:100C50000C947C08A8E1B0E0E0E3F6E00C946008B6
:100C600069837A838B839C832D833E834F8358874C
:100C700089E0E82EF12CEC0EFD1ECE010196B701A5
:100C80000E9483078E010F5E1F4FCE010596B801AB
:100C90000E9483078985823040F08989823028F05C
:100CA000C701B8010E94FB0701C081E06896E6E039
:100CB0000C947C08ACE0B0E0E0E6F6E00C9464084C
:100CC00069837A838B839C83CE010196BE016B5F1F
:100CD0007F4F0E9483078D81823061F1823050F115
:100CE000843021F48E81882351F12EC02F813885E4
:100CF00037FD20C06E812F3131051CF06623F9F0DD
:100D000023C08EE190E0821B930B29853A854B85A9
:100D10005C8504C056954795379527958A95D2F7F7
:100D20006623B1F050954095309521953F4F4F4F38
:100D30005F4F0EC020E030E040E050E009C02FEFF0
:100D40003FEF4FEF5FE704C020E030E040E050E8C5
:100D5000B901CA012C96E2E00C948008DF92EF9270
:100D6000FF920F931F93FC01E480F58006811781A9
:100D7000D1808081823048F480E090E0A0E1B0E052
:100D8000E82AF92A0A2B1B2BA5C0843009F49FC03E
:100D9000823021F4EE24FF24870105C0E114F10420
:100DA0000105110519F4E0E0F0E096C0628173815D
:100DB0009FEF623879070CF05BC022E83FEF261BFB
:100DC000370B2A3131052CF020E030E040E050E0D4
:100DD0002AC0B801A701022E04C0769567955795E1
:100DE00047950A94D2F781E090E0A0E0B0E004C01B
:100DF000880F991FAA1FBB1F2A95D2F70197A10937
:100E0000B1098E219F21A023B1230097A105B1052F
:100E100021F081E090E0A0E0B0E09A01AB01282B46
:100E2000392B4A2B5B2BDA01C9018F779070A070A8
:100E3000B07080349105A105B10539F427FF09C0D0
:100E4000205C3F4F4F4F5F4F04C0215C3F4F4F4FDF
:100E50005F4FE0E0F0E02030A0E03A07A0E04A0772
:100E6000A0E45A0710F0E1E0F0E079018A0127C020
:100E70006038710564F5FB01E158FF4FD801C701E7
:100E80008F779070A070B07080349105A105B10586
:100E900039F4E7FE0DC080E490E0A0E0B0E004C0CB
:100EA0008FE390E0A0E0B0E0E80EF91E0A1F1B1FE0
:100EB00017FF05C016950795F794E794319687E0DC
:100EC00016950795F794E7948A95D1F705C0EE2417
:100ED000FF248701EFEFF0E06E2F67956627679597
:100EE000902F9F77D794DD24D7948E2F8695492F06
:100EF000462B582F5D29B701CA011F910F91FF9012
:100F0000EF90DF900895FC01DB0140815181228147
:100F1000622F6F7770E0221F2227221F9381892F73
:100F2000880F822B282F30E0991F9927991F11963F
:100F30009C93119721153105A9F5411551056105BE
:100F4000710511F482E037C082E89FEF13969C93FD
:100F50008E9312979A01AB0167E0220F331F441F53
:100F6000551F6A95D1F783E08C930DC0220F331F74
:100F7000441F551F12968D919C91139701971396BC
:100F80009C938E931297203080E0380780E04807CA
:100F900080E4580758F314962D933D934D935C933A
:100FA000179708952F3F310579F4411551056105D3
:100FB000710519F484E08C93089564FF03C081E007
:100FC0008C9312C01C9210C02F57304013963C9344
:100FD0002E93129783E08C9387E0440F551F661F72
:100FE000771F8A95D1F7706414964D935D936D9336
:100FF0007C93179708951F93DC01FB019C9192301D
:1010000008F447C08081823008F443C0943051F422
:1010100011961C91843099F58181682F70E0611BD5
:1010200071093FC0843021F0923031F48230B9F13F
:101030008181882389F12DC011961C9111978230EE
:10104000F1F081811817D9F412962D913C911397E4
:10105000828193818217930794F028173907BCF097
:1010600014968D919D910D90BC91A02D2481358178
:1010700046815781281739074A075B0718F411235F
:1010800041F00AC082179307A407B50740F4112363
:1010900019F061E070E005C06FEF7FEF02C060E023
:1010A00070E0CB011F9108952F923F924F925F9273
:1010B0006F927F928F929F92AF92BF92CF92DF9268
:1010C000EF92FF920F931F93CF93DF93CDB7DEB7CD
:1010D000CA1BDB0B0FB6F894DEBF0FBECDBF199451
:1010E0002A88398848885F846E847D848C849B84B8
:1010F000AA84B984C884DF80EE80FD800C811B81C6
:10110000AA81B981CE0FD11D0FB6F894DEBF0FBEF4
:0A111000CDBFED010895F894FFCF64
:08111A000000000000000000CD
:00000001FF
